{
  "_format": "hh-sol-artifact-1",
  "contractName": "NFTMarket",
  "sourceName": "contracts/NFTMarket.sol",
  "abi": [
    {
      "inputs": [],
      "stateMutability": "nonpayable",
      "type": "constructor"
    },
    {
      "anonymous": false,
      "inputs": [
        {
          "indexed": true,
          "internalType": "uint256",
          "name": "itemId",
          "type": "uint256"
        },
        {
          "indexed": true,
          "internalType": "address",
          "name": "nftContract",
          "type": "address"
        },
        {
          "indexed": true,
          "internalType": "uint256",
          "name": "tokenId",
          "type": "uint256"
        },
        {
          "indexed": false,
          "internalType": "address",
          "name": "seller",
          "type": "address"
        },
        {
          "indexed": false,
          "internalType": "address",
          "name": "owner",
          "type": "address"
        },
        {
          "indexed": false,
          "internalType": "uint256",
          "name": "price",
          "type": "uint256"
        },
        {
          "indexed": false,
          "internalType": "bool",
          "name": "sold",
          "type": "bool"
        }
      ],
      "name": "MarketItemCreated",
      "type": "event"
    },
    {
      "inputs": [
        {
          "internalType": "address",
          "name": "nftContract",
          "type": "address"
        },
        {
          "internalType": "uint256",
          "name": "tokenId",
          "type": "uint256"
        },
        {
          "internalType": "uint256",
          "name": "price",
          "type": "uint256"
        }
      ],
      "name": "createMarketItem",
      "outputs": [],
      "stateMutability": "payable",
      "type": "function"
    },
    {
      "inputs": [
        {
          "internalType": "address",
          "name": "nftContract",
          "type": "address"
        },
        {
          "internalType": "uint256",
          "name": "itemId",
          "type": "uint256"
        }
      ],
      "name": "createMarketSale",
      "outputs": [],
      "stateMutability": "payable",
      "type": "function"
    },
    {
      "inputs": [],
      "name": "fetchItemsCreated",
      "outputs": [
        {
          "components": [
            {
              "internalType": "uint256",
              "name": "itemId",
              "type": "uint256"
            },
            {
              "internalType": "address",
              "name": "nftContract",
              "type": "address"
            },
            {
              "internalType": "uint256",
              "name": "tokenId",
              "type": "uint256"
            },
            {
              "internalType": "address payable",
              "name": "seller",
              "type": "address"
            },
            {
              "internalType": "address payable",
              "name": "owner",
              "type": "address"
            },
            {
              "internalType": "uint256",
              "name": "price",
              "type": "uint256"
            },
            {
              "internalType": "bool",
              "name": "sold",
              "type": "bool"
            }
          ],
          "internalType": "struct NFTMarket.MarketItem[]",
          "name": "",
          "type": "tuple[]"
        }
      ],
      "stateMutability": "view",
      "type": "function"
    },
    {
      "inputs": [],
      "name": "fetchMarketItems",
      "outputs": [
        {
          "components": [
            {
              "internalType": "uint256",
              "name": "itemId",
              "type": "uint256"
            },
            {
              "internalType": "address",
              "name": "nftContract",
              "type": "address"
            },
            {
              "internalType": "uint256",
              "name": "tokenId",
              "type": "uint256"
            },
            {
              "internalType": "address payable",
              "name": "seller",
              "type": "address"
            },
            {
              "internalType": "address payable",
              "name": "owner",
              "type": "address"
            },
            {
              "internalType": "uint256",
              "name": "price",
              "type": "uint256"
            },
            {
              "internalType": "bool",
              "name": "sold",
              "type": "bool"
            }
          ],
          "internalType": "struct NFTMarket.MarketItem[]",
          "name": "",
          "type": "tuple[]"
        }
      ],
      "stateMutability": "view",
      "type": "function"
    },
    {
      "inputs": [],
      "name": "fetchMyNFTs",
      "outputs": [
        {
          "components": [
            {
              "internalType": "uint256",
              "name": "itemId",
              "type": "uint256"
            },
            {
              "internalType": "address",
              "name": "nftContract",
              "type": "address"
            },
            {
              "internalType": "uint256",
              "name": "tokenId",
              "type": "uint256"
            },
            {
              "internalType": "address payable",
              "name": "seller",
              "type": "address"
            },
            {
              "internalType": "address payable",
              "name": "owner",
              "type": "address"
            },
            {
              "internalType": "uint256",
              "name": "price",
              "type": "uint256"
            },
            {
              "internalType": "bool",
              "name": "sold",
              "type": "bool"
            }
          ],
          "internalType": "struct NFTMarket.MarketItem[]",
          "name": "",
          "type": "tuple[]"
        }
      ],
      "stateMutability": "view",
      "type": "function"
    },
    {
      "inputs": [],
      "name": "getListingPrice",
      "outputs": [
        {
          "internalType": "uint256",
          "name": "",
          "type": "uint256"
        }
      ],
      "stateMutability": "view",
      "type": "function"
    }
  ],
  "bytecode": "0x60806040526658d15e1762800060045534801561001b57600080fd5b50600160008190555033600360006101000a81548173ffffffffffffffffffffffffffffffffffffffff021916908373ffffffffffffffffffffffffffffffffffffffff160217905550611993806100746000396000f3fe6080604052600436106100555760003560e01c80630f08efe01461005a57806312e8558514610085578063202e3740146100b057806358eb2df5146100db578063c23b139e146100f7578063f064c32e14610113575b600080fd5b34801561006657600080fd5b5061006f61013e565b60405161007c91906115cc565b60405180910390f35b34801561009157600080fd5b5061009a610469565b6040516100a7919061166e565b60405180910390f35b3480156100bc57600080fd5b506100c5610473565b6040516100d291906115cc565b60405180910390f35b6100f560048036038101906100f091906112f9565b610821565b005b610111600480360381019061010c91906112bd565b610b85565b005b34801561011f57600080fd5b50610128610e3e565b60405161013591906115cc565b60405180910390f35b6060600061014c60016111ee565b9050600061015a60026111ee565b61016460016111ee565b61016e9190611729565b90506000808267ffffffffffffffff8111156101b3577f4e487b7100000000000000000000000000000000000000000000000000000000600052604160045260246000fd5b6040519080825280602002602001820160405280156101ec57816020015b6101d9611212565b8152602001906001900390816101d15790505b50905060005b8481101561045e57600073ffffffffffffffffffffffffffffffffffffffff166005600060018461022391906116d3565b815260200190815260200160002060040160009054906101000a900473ffffffffffffffffffffffffffffffffffffffff1673ffffffffffffffffffffffffffffffffffffffff16141561044b5760006005600060018461028491906116d3565b81526020019081526020016000206000015490506000600560008381526020019081526020016000209050806040518060e0016040529081600082015481526020016001820160009054906101000a900473ffffffffffffffffffffffffffffffffffffffff1673ffffffffffffffffffffffffffffffffffffffff1673ffffffffffffffffffffffffffffffffffffffff168152602001600282015481526020016003820160009054906101000a900473ffffffffffffffffffffffffffffffffffffffff1673ffffffffffffffffffffffffffffffffffffffff1673ffffffffffffffffffffffffffffffffffffffff1681526020016004820160009054906101000a900473ffffffffffffffffffffffffffffffffffffffff1673ffffffffffffffffffffffffffffffffffffffff1673ffffffffffffffffffffffffffffffffffffffff168152602001600582015481526020016006820160009054906101000a900460ff16151515158152505084868151811061042f577f4e487b7100000000000000000000000000000000000000000000000000000000600052603260045260246000fd5b60200260200101819052508480610445906117ed565b95505050505b8080610456906117ed565b9150506101f2565b508094505050505090565b6000600454905090565b6060600061048160016111ee565b905060008060005b83811015610529573373ffffffffffffffffffffffffffffffffffffffff16600560006001846104b991906116d3565b815260200190815260200160002060040160009054906101000a900473ffffffffffffffffffffffffffffffffffffffff1673ffffffffffffffffffffffffffffffffffffffff161415610516578280610512906117ed565b9350505b8080610521906117ed565b915050610489565b5060008267ffffffffffffffff81111561056c577f4e487b7100000000000000000000000000000000000000000000000000000000600052604160045260246000fd5b6040519080825280602002602001820160405280156105a557816020015b610592611212565b81526020019060019003908161058a5790505b50905060005b84811015610816573373ffffffffffffffffffffffffffffffffffffffff16600560006001846105db91906116d3565b815260200190815260200160002060040160009054906101000a900473ffffffffffffffffffffffffffffffffffffffff1673ffffffffffffffffffffffffffffffffffffffff1614156108035760006005600060018461063c91906116d3565b81526020019081526020016000206000015490506000600560008381526020019081526020016000209050806040518060e0016040529081600082015481526020016001820160009054906101000a900473ffffffffffffffffffffffffffffffffffffffff1673ffffffffffffffffffffffffffffffffffffffff1673ffffffffffffffffffffffffffffffffffffffff168152602001600282015481526020016003820160009054906101000a900473ffffffffffffffffffffffffffffffffffffffff1673ffffffffffffffffffffffffffffffffffffffff1673ffffffffffffffffffffffffffffffffffffffff1681526020016004820160009054906101000a900473ffffffffffffffffffffffffffffffffffffffff1673ffffffffffffffffffffffffffffffffffffffff1673ffffffffffffffffffffffffffffffffffffffff168152602001600582015481526020016006820160009054906101000a900460ff1615151515815250508486815181106107e7577f4e487b7100000000000000000000000000000000000000000000000000000000600052603260045260246000fd5b602002602001018190525084806107fd906117ed565b95505050505b808061080e906117ed565b9150506105ab565b508094505050505090565b60026000541415610867576040517f08c379a000000000000000000000000000000000000000000000000000000000815260040161085e9061164e565b60405180910390fd5b6002600081905550600081116108b2576040517f08c379a00000000000000000000000000000000000000000000000000000000081526004016108a9906115ee565b60405180910390fd5b60045434146108f6576040517f08c379a00000000000000000000000000000000000000000000000000000000081526004016108ed9061162e565b60405180910390fd5b61090060016111fc565b600061090c60016111ee565b90506040518060e001604052808281526020018573ffffffffffffffffffffffffffffffffffffffff1681526020018481526020013373ffffffffffffffffffffffffffffffffffffffff168152602001600073ffffffffffffffffffffffffffffffffffffffff16815260200183815260200160001515815250600560008381526020019081526020016000206000820151816000015560208201518160010160006101000a81548173ffffffffffffffffffffffffffffffffffffffff021916908373ffffffffffffffffffffffffffffffffffffffff1602179055506040820151816002015560608201518160030160006101000a81548173ffffffffffffffffffffffffffffffffffffffff021916908373ffffffffffffffffffffffffffffffffffffffff16021790555060808201518160040160006101000a81548173ffffffffffffffffffffffffffffffffffffffff021916908373ffffffffffffffffffffffffffffffffffffffff16021790555060a0820151816005015560c08201518160060160006101000a81548160ff0219169083151502179055509050508373ffffffffffffffffffffffffffffffffffffffff166323b872dd3330866040518463ffffffff1660e01b8152600401610aed93929190611595565b600060405180830381600087803b158015610b0757600080fd5b505af1158015610b1b573d6000803e3d6000fd5b50505050828473ffffffffffffffffffffffffffffffffffffffff16827f045dfa01dcba2b36aba1d3dc4a874f4b0c5d2fbeb8d2c4b34a7d88c8d8f929d1336000876000604051610b6f9493929190611550565b60405180910390a4506001600081905550505050565b60026000541415610bcb576040517f08c379a0000000000000000000000000000000000000000000000000000000008152600401610bc29061164e565b60405180910390fd5b6002600081905550600060056000838152602001908152602001600020600501549050600060056000848152602001908152602001600020600201549050813414610c4b576040517f08c379a0000000000000000000000000000000000000000000000000000000008152600401610c429061160e565b60405180910390fd5b6005600084815260200190815260200160002060030160009054906101000a900473ffffffffffffffffffffffffffffffffffffffff1673ffffffffffffffffffffffffffffffffffffffff166108fc349081150290604051600060405180830381858888f19350505050158015610cc7573d6000803e3d6000fd5b508373ffffffffffffffffffffffffffffffffffffffff166323b872dd3033846040518463ffffffff1660e01b8152600401610d0593929190611595565b600060405180830381600087803b158015610d1f57600080fd5b505af1158015610d33573d6000803e3d6000fd5b50505050336005600085815260200190815260200160002060040160006101000a81548173ffffffffffffffffffffffffffffffffffffffff021916908373ffffffffffffffffffffffffffffffffffffffff16021790555060016005600085815260200190815260200160002060060160006101000a81548160ff021916908315150217905550610dc560026111fc565b600360009054906101000a900473ffffffffffffffffffffffffffffffffffffffff1673ffffffffffffffffffffffffffffffffffffffff166108fc6004549081150290604051600060405180830381858888f19350505050158015610e2f573d6000803e3d6000fd5b50505060016000819055505050565b60606000610e4c60016111ee565b905060008060005b83811015610ef5573373ffffffffffffffffffffffffffffffffffffffff1660056000600184610e8491906116d3565b815260200190815260200160002060030160009054906101000a900473ffffffffffffffffffffffffffffffffffffffff1673ffffffffffffffffffffffffffffffffffffffff161415610ee257600183610edf91906116d3565b92505b8080610eed906117ed565b915050610e54565b5060008267ffffffffffffffff811115610f38577f4e487b7100000000000000000000000000000000000000000000000000000000600052604160045260246000fd5b604051908082528060200260200182016040528015610f7157816020015b610f5e611212565b815260200190600190039081610f565790505b50905060005b848110156111e3573373ffffffffffffffffffffffffffffffffffffffff1660056000600184610fa791906116d3565b815260200190815260200160002060030160009054906101000a900473ffffffffffffffffffffffffffffffffffffffff1673ffffffffffffffffffffffffffffffffffffffff1614156111d05760006005600060018461100891906116d3565b81526020019081526020016000206000015490506000600560008381526020019081526020016000209050806040518060e0016040529081600082015481526020016001820160009054906101000a900473ffffffffffffffffffffffffffffffffffffffff1673ffffffffffffffffffffffffffffffffffffffff1673ffffffffffffffffffffffffffffffffffffffff168152602001600282015481526020016003820160009054906101000a900473ffffffffffffffffffffffffffffffffffffffff1673ffffffffffffffffffffffffffffffffffffffff1673ffffffffffffffffffffffffffffffffffffffff1681526020016004820160009054906101000a900473ffffffffffffffffffffffffffffffffffffffff1673ffffffffffffffffffffffffffffffffffffffff1673ffffffffffffffffffffffffffffffffffffffff168152602001600582015481526020016006820160009054906101000a900460ff1615151515815250508486815181106111b3577f4e487b7100000000000000000000000000000000000000000000000000000000600052603260045260246000fd5b60200260200101819052506001856111cb91906116d3565b945050505b80806111db906117ed565b915050610f77565b508094505050505090565b600081600001549050919050565b6001816000016000828254019250508190555050565b6040518060e0016040528060008152602001600073ffffffffffffffffffffffffffffffffffffffff16815260200160008152602001600073ffffffffffffffffffffffffffffffffffffffff168152602001600073ffffffffffffffffffffffffffffffffffffffff168152602001600081526020016000151581525090565b6000813590506112a28161192f565b92915050565b6000813590506112b781611946565b92915050565b600080604083850312156112d057600080fd5b60006112de85828601611293565b92505060206112ef858286016112a8565b9150509250929050565b60008060006060848603121561130e57600080fd5b600061131c86828701611293565b935050602061132d868287016112a8565b925050604061133e868287016112a8565b9150509250925092565b600061135483836114a4565b60e08301905092915050565b611369816117b7565b82525050565b6113788161176f565b82525050565b6113878161175d565b82525050565b6113968161175d565b82525050565b60006113a782611699565b6113b181856116b1565b93506113bc83611689565b8060005b838110156113ed5781516113d48882611348565b97506113df836116a4565b9250506001810190506113c0565b5085935050505092915050565b61140381611781565b82525050565b61141281611781565b82525050565b6000611425601c836116c2565b915061143082611865565b602082019050919050565b60006114486040836116c2565b91506114538261188e565b604082019050919050565b600061146b601e836116c2565b9150611476826118dd565b602082019050919050565b600061148e601f836116c2565b915061149982611906565b602082019050919050565b60e0820160008201516114ba6000850182611532565b5060208201516114cd602085018261137e565b5060408201516114e06040850182611532565b5060608201516114f3606085018261136f565b506080820151611506608085018261136f565b5060a082015161151960a0850182611532565b5060c082015161152c60c08501826113fa565b50505050565b61153b816117ad565b82525050565b61154a816117ad565b82525050565b6000608082019050611565600083018761138d565b6115726020830186611360565b61157f6040830185611541565b61158c6060830184611409565b95945050505050565b60006060820190506115aa600083018661138d565b6115b7602083018561138d565b6115c46040830184611541565b949350505050565b600060208201905081810360008301526115e6818461139c565b905092915050565b6000602082019050818103600083015261160781611418565b9050919050565b600060208201905081810360008301526116278161143b565b9050919050565b600060208201905081810360008301526116478161145e565b9050919050565b6000602082019050818103600083015261166781611481565b9050919050565b60006020820190506116836000830184611541565b92915050565b6000819050602082019050919050565b600081519050919050565b6000602082019050919050565b600082825260208201905092915050565b600082825260208201905092915050565b60006116de826117ad565b91506116e9836117ad565b9250827fffffffffffffffffffffffffffffffffffffffffffffffffffffffffffffffff0382111561171e5761171d611836565b5b828201905092915050565b6000611734826117ad565b915061173f836117ad565b92508282101561175257611751611836565b5b828203905092915050565b60006117688261178d565b9050919050565b600061177a8261178d565b9050919050565b60008115159050919050565b600073ffffffffffffffffffffffffffffffffffffffff82169050919050565b6000819050919050565b60006117c2826117c9565b9050919050565b60006117d4826117db565b9050919050565b60006117e68261178d565b9050919050565b60006117f8826117ad565b91507fffffffffffffffffffffffffffffffffffffffffffffffffffffffffffffffff82141561182b5761182a611836565b5b600182019050919050565b7f4e487b7100000000000000000000000000000000000000000000000000000000600052601160045260246000fd5b7f7072696365206d757374206265206174206c6561737420312077656900000000600082015250565b7f506c65617365207375626d6974207468652061736b696e67207072696365206960008201527f6e206f7264657220746f20636f6d706c65746520746865207075726368617365602082015250565b7f7072696365206d757374206d61746368206c697374696e672070726963650000600082015250565b7f5265656e7472616e637947756172643a207265656e7472616e742063616c6c00600082015250565b6119388161175d565b811461194357600080fd5b50565b61194f816117ad565b811461195a57600080fd5b5056fea2646970667358221220ae5d9fd04fba1fc3892d029fb44e9555a42ffcecc71ced39a77215e0918f2ec564736f6c63430008040033",
  "linkReferences": {},
  "deployedLinkReferences": {}
}